:020000040800F2
:100000000000022075190008C5160008C716000870
:10001000C9160008CB160008CD1600080000000025
:10002000000000000000000000000000CF160008E3
:10003000D116000800000000D3160008D5160008ED
:10004000C5190008C5190008C5190008C519000818
:10005000C5190008C5190008C5190008C519000808
:10006000C5190008C5190008C5190008C5190008F8
:10007000C5190008C5190008C5190008C5190008E8
:10008000C5190008C5190008C5190008C5190008D8
:10009000C5190008C5190008C5190008C5190008C8
:1000A000C5190008C5190008C5190008C5190008B8
:1000B000C5190008C5190008C5190008C5190008A8
:1000C000C5190008C5190008C5190008C519000898
:1000D000C5190008C5190008C5190008C519000888
:1000E000C5190008C5190008C5190008C519000878
:1000F000C5190008C5190008C5190008C519000868
:10010000C5190008C5190008C5190008C519000857
:10011000DD160008ED160008C5190008C51900080D
:10012000C5190008C5190008C5190008C519000837
:10013000C5190008C5190008C5190008C519000827
:10014000C5190008C5190008C5190008C519000817
:10015000C5190008C5190008C5190008C519000807
:10016000C5190008C5190008C5190008C5190008F7
:10017000C5190008C5190008C519000800000000CD
:08018000C5190008C5190008AB
:1001C00010B5054C237833B9044B13B10448AFF391
:1001D00000800123237010BDB8090020000000003A
:1001E000888E000808B5034B1BB103490348AFF3E1
:1001F000008008BD00000000BC090020888E0008B7
:1002000081F0004102E000BF83F0004330B54FEAC7
:1002100041044FEA430594EA050F08BF90EA020F34
:100220001FBF54EA000C55EA020C7FEA645C7FEAC7
:10023000655C00F0E2804FEA5454D4EB5555B8BFEA
:100240006D420CDD2C4480EA020281EA030382EA5B
:10025000000083EA010180EA020281EA0303362DED
:1002600088BF30BD11F0004F4FEA01314FF4801CC0
:100270004CEA113102D0404261EB410113F0004FD2
:100280004FEA03334CEA133302D0524263EB430389
:1002900094EA050F00F0A780A4F10104D5F1200E27
:1002A0000DDB02FA0EFC22FA05F2801841F1000182
:1002B00003FA0EF2801843FA05F359410EE0A5F156
:1002C00020050EF1200E012A03FA0EFC28BF4CF087
:1002D000020C43FA05F3C01851EBE37101F000453D
:1002E00007D54FF0000EDCF1000C7EEB00006EEB4A
:1002F0000101B1F5801F1BD3B1F5001F0CD34908D4
:100300005FEA30004FEA3C0C04F101044FEA44522A
:1003100012F5800F80F09A80BCF1004F08BF5FEAB1
:10032000500C50F1000041EB045141EA050130BD91
:100330005FEA4C0C404141EB0101013C28BFB1F5A3
:10034000801FE9D291F0000F04BF01460020B1FAEE
:1003500081F308BF2033A3F10B03B3F120020CDAC1
:100360000C3208DD02F1140CC2F10C0201FA0CF09F
:1003700021FA02F10CE002F11402D8BFC2F1200C04
:1003800001FA02F120FA0CFCDCBF41EA0C019040BA
:10039000E41AA2BF01EB0451294330BD6FEA040403
:1003A0001F3C1CDA0C340EDC04F11404C4F12002EE
:1003B00020FA04F001FA02F340EA030021FA04F300
:1003C00045EA030130BDC4F10C04C4F1200220FA57
:1003D00002F001FA04F340EA0300294630BD21FA95
:1003E00004F0294630BD94F0000F83F4801306BF5B
:1003F00081F480110134013D4EE77FEA645C18BF4F
:100400007FEA655C29D094EA050F08BF90EA020FE5
:1004100005D054EA000C04BF1946104630BD91EADD
:10042000030F1EBF0021002030BD5FEA545C05D1E0
:100430004000494128BF41F0004130BD14F580041F
:100440003CBF01F5801130BD01F0004545F0FE4193
:1004500041F470014FF0000030BD7FEA645C1ABFC8
:10046000194610467FEA655C1CBF0B46024650EAFF
:10047000013406BF52EA033591EA030F41F400212B
:1004800030BD00BF90F0000F04BF0021704730B5B1
:100490004FF4806404F132044FF000054FF0000186
:1004A00050E700BF90F0000F04BF0021704730B547
:1004B0004FF4806404F1320410F0004548BF40421C
:1004C0004FF000013EE700BF42004FEAE2014FEA71
:1004D00031014FEA02701FBF12F07F4393F07F4F4C
:1004E00081F06051704732F07F4208BF704793F04F
:1004F0007F4F04BF41F40021704730B54FF4607462
:1005000001F0004521F000411CE700BF50EA010264
:1005100008BF704730B54FF000050AE050EA01020D
:1005200008BF704730B511F0004502D5404261EB7D
:1005300041014FF4806404F132045FEA915C3FF4BE
:10054000D8AE4FF003025FEADC0C18BF03325FEA5B
:10055000DC0C18BF033202EBDC02C2F1200300FA0C
:1005600003FC20FA02F001FA03FE40EA0E0021FA31
:1005700002F11444BDE600BF70B54FF0FF0C4CF41F
:10058000E06C1CEA11541DBF1CEA135594EA0C0FD1
:1005900095EA0C0F00F0DEF82C4481EA030621EA0C
:1005A0004C5123EA4C5350EA013518BF52EA033547
:1005B00041F4801143F4801338D0A0FB02CE4FF0F9
:1005C0000005E1FB02E506F00042E0FB03E54FF029
:1005D0000006E1FB03569CF0000F18BF4EF0010E21
:1005E000A4F1FF04B6F5007F64F5407404D25FEA1D
:1005F0004E0E6D4146EB060642EAC62141EA5551D0
:100600004FEAC52040EA5E504FEACE2EB4F1FD0C11
:1006100088BFBCF5E06F1ED8BEF1004F08BF5FEA8F
:10062000500E50F1000041EB045170BD06F0004641
:1006300046EA010140EA020081EA0301B4EB5C04EE
:10064000C2BFD4EB0C0541EA045170BD41F48011E6
:100650004FF0000E013C00F3AB8014F1360FDEBF0B
:10066000002001F0004170BDC4F10004203C35DAE7
:100670000C341BDC04F11404C4F1200500FA05F36A
:1006800020FA04F001FA05F240EA020001F000420B
:1006900021F0004110EBD37021FA04F642EB060181
:1006A0005EEA430E08BF20EAD37070BDC4F10C04AB
:1006B000C4F1200500FA04F320FA05F001FA04F26F
:1006C00040EA020001F0004110EBD37041F100015B
:1006D0005EEA430E08BF20EAD37070BDC4F1200566
:1006E00000FA05F24EEA020E20FA04F301FA05F2CE
:1006F00043EA020321FA04F001F0004121FA04F276
:1007000020EA020000EBD3705EEA430E08BF20EA45
:10071000D37070BD94F0000F0FD101F0004640007F
:1007200041EB010111F4801F08BF013CF7D041EA01
:10073000060195F0000F18BF704703F00046520005
:1007400043EB030313F4801F08BF013DF7D043EAD6
:100750000603704794EA0C0F0CEA135518BF95EA8C
:100760000C0F0CD050EA410618BF52EA4306D1D113
:1007700081EA030101F000414FF0000070BD50EA32
:10078000410606BF1046194652EA430619D094EABC
:100790000C0F02D150EA013613D195EA0C0F05D1A6
:1007A00052EA03361CBF104619460AD181EA0301FA
:1007B00001F0004141F0FE4141F470014FF00000B2
:1007C00070BD41F0FE4141F4780170BD70B54FF04D
:1007D000FF0C4CF4E06C1CEA11541DBF1CEA1355CD
:1007E00094EA0C0F95EA0C0F00F0A7F8A4EB0504AF
:1007F00081EA030E52EA03354FEA013100F08880A6
:100800004FEA03334FF0805545EA131343EA12636E
:100810004FEA022245EA111545EA10654FEA002623
:100820000EF000419D4208BF964244F1FD0404F5DC
:10083000407402D25B084FEA3202B61A65EB030538
:100840005B084FEA32024FF480104FF4002CB6EBF5
:10085000020E75EB030E22BFB61A754640EA0C0075
:100860005B084FEA3202B6EB020E75EB030E22BFB5
:10087000B61A754640EA5C005B084FEA3202B6EBF6
:10088000020E75EB030E22BFB61A754640EA9C00B5
:100890005B084FEA3202B6EB020E75EB030E22BF85
:1008A000B61A754640EADC0055EA060E18D04FEA43
:1008B000051545EA16754FEA06164FEAC30343EAE3
:1008C00052734FEAC2025FEA1C1CC0D111F4801FB0
:1008D0000BD141EA00014FF000004FF0004CB6E7A9
:1008E00011F4801F04BF01430020B4F1FD0C88BF48
:1008F000BCF5E06F3FF6AFAEB5EB030C04BFB6EB53
:10090000020C5FEA500C50F1000041EB045170BD45
:100910000EF0004E4EEA113114EB5C04C2BFD4EB72
:100920000C0541EA045170BD41F480114FF0000EF6
:10093000013C90E645EA060E8DE60CEA135594EA72
:100940000C0F08BF95EA0C0F3FF43BAF94EA0C0F75
:100950000AD150EA01347FF434AF95EA0C0F7FF4EA
:1009600025AF104619462CE795EA0C0F06D152EA3E
:1009700003353FF4FDAE1046194622E750EA410622
:1009800018BF52EA43067FF4C5AE50EA41047FF433
:100990000DAF52EA43057FF4EBAE12E753B94AB903
:1009A000002908BF00281CBF4FF0FF314FF0FF3077
:1009B00000F074B9ADF1080C6DE904CE00F006F852
:1009C000DDF804E0DDE9022304B070472DE9F047CB
:1009D000089E0D4604468846002B4DD18A42944617
:1009E00068D9B2FA82F252B101FA02F3C2F12001DF
:1009F00020FA01F10CFA02FC41EA030894404FEAA4
:100A00001C45210CB8FBF5FE1FFA8CF705FB1E8375
:100A100041EA03430EFB07F199420BD91CEB030398
:100A20000EF1FF3080F01E81994240F21B81AEF141
:100A3000020E63445B1AA4B2B3FBF5F005FB10335E
:100A400044EA034400FB07F7A7420AD91CEB04045D
:100A500000F1FF3380F00881A74240F20581644431
:100A60000238E41B40EA0E4000211EB1D4400023AE
:100A7000C6E90043BDE8F0878B4208D9002E00F09C
:100A8000EE800021C6E900050846BDE8F087B3FA0C
:100A900083F100294AD1AB4202D3824200F2F980AD
:100AA000841A65EB030301209846002EE2D0C6E9C4
:100AB0000048DFE702B9FFDEB2FA82F2002A40F016
:100AC0009180A1EB0C054FEA1C471FFA8CFE012117
:100AD000B5FBF7F307FB1350250C45EA00450EFB69
:100AE00003F0A84208D91CEB050503F1FF3802D238
:100AF000A84200F2CB8043462D1AA4B2B5FBF7F012
:100B000007FB105544EA05440EFB00FEA64508D934
:100B10001CEB040400F1FF3502D2A64500F2BB80B5
:100B20002846A4EB0E0440EA03409EE7C1F12007EB
:100B30008B4022FA07FC4CEA030C20FA07F405FA72
:100B400001F31C43FD404FEA1C4900FA01F3B5FBD9
:100B5000F9F8200C1FFA8CFE09FB185540EA0545F0
:100B600008FB0EF0A84202FA01F20BD91CEB0505B6
:100B700008F1FF3A80F08880A84240F28580A8F111
:100B8000020865442D1AA4B2B5FBF9F009FB105513
:100B900044EA054500FB0EFEAE4508D91CEB0505F1
:100BA00000F1FF346CD2AE456AD90238654440EAA0
:100BB0000840A0FB0294A5EB0E05A542C846A64638
:100BC00056D353D05EB1B3EB080265EB0E0505FAC0
:100BD00007F722FA01F3CD401F43C6E90075002153
:100BE000BDE8F087C2F1200320FA03F10CFA02FC01
:100BF00025FA03F395400D434FEA1C471FFA8CFE7C
:100C0000B3FBF7F107FB11302B0C43EA004301FB68
:100C10000EF0984204FA02F408D91CEB030301F128
:100C2000FF382FD298422DD9023963441B1AADB236
:100C3000B3FBF7F007FB103345EA034500FB0EF367
:100C4000AB4208D91CEB050500F1FF3816D2AB42C8
:100C500014D902386544ED1A40EA014138E73146BB
:100C6000304607E78646E5E61846FAE64B45A9D240
:100C7000B9EB020864EB0C0E0138A3E74046EAE743
:100C8000204694E74146D1E7D0467BE7023B6544E6
:100C900032E7084609E76444023842E7704700BF7C
:100CA0000000000000000000000000000000000044
:100CB0000000000000000000000000000000000034
:100CC00090F800F06DE9024520F007016FF0000C8C
:100CD00010F0070491F820F040F049804FF0000434
:100CE0006FF00700D1E9002391F840F000F108000F
:100CF00082FA4CF2A4FA8CF283FA4CF3A2FA8CF347
:100D00004BBBD1E9022382FA4CF200F10800A4FAAD
:100D10008CF283FA4CF3A2FA8CF3E3B9D1E9042301
:100D200082FA4CF200F10800A4FA8CF283FA4CF338
:100D3000A2FA8CF37BB9D1E9062301F1200182FAF2
:100D40004CF200F10800A4FA8CF283FA4CF3A2FAF8
:100D50008CF3002BC6D0002A04BF04301A4612BA06
:100D6000B2FA82F2FDE8024500EBD2007047D1E909
:100D7000002304F00305C4F100004FEAC50514F098
:100D8000040F91F840F00CFA05F562EA05021CBF69
:100D900063EA050362464FF00004A9E70000000083
:100DA00001F0FF01102A2BDB10F0070F08D010F81C
:100DB000013B013A8B422DD010F0070F42B3F6D120
:100DC000F0B441EA012141EA014122F007047FF039
:100DD00000070023F0E80256083C85EA010586EA90
:100DE000010685FA47F5A3FA87F586FA47F6A5FACC
:100DF00087F68EB9EED1F0BC01F0FF0102F00702D8
:100E000032B110F8013B013A83EA010313B1F8D182
:100E10000020704701387047002D06BF3546033863
:100E2000073815F0010F07D1013015F4807F02BF9C
:100E3000013015F4C03F0130F0BC0138704700BFED
:100E4000844641EA000313F003036DD1403A41D3D5
:100E500051F8043B40F8043B51F8043B40F8043B94
:100E600051F8043B40F8043B51F8043B40F8043B84
:100E700051F8043B40F8043B51F8043B40F8043B74
:100E800051F8043B40F8043B51F8043B40F8043B64
:100E900051F8043B40F8043B51F8043B40F8043B54
:100EA00051F8043B40F8043B51F8043B40F8043B44
:100EB00051F8043B40F8043B51F8043B40F8043B34
:100EC00051F8043B40F8043B51F8043B40F8043B24
:100ED000403ABDD2303211D351F8043B40F8043BC4
:100EE00051F8043B40F8043B51F8043B40F8043B04
:100EF00051F8043B40F8043B103AEDD20C3205D3D4
:100F000051F8043B40F8043B043AF9D2043208D0CB
:100F1000D2071CBF11F8013B00F8013B01D30B883D
:100F200003806046704700BF082A13D38B078DD01B
:100F300010F003038AD0C3F10403D21ADB071CBFED
:100F400011F8013B00F8013B80D331F8023B20F857
:100F5000023B7BE7043AD9D3013A11F8013B00F890
:100F6000013BF9D20B7803704B7843708B78837018
:100F7000604670474FF0FF3C06E000BF4FF0010CA9
:100F800002E000BF4FF0010C4DF804CD4FEA410CD8
:100F90007FEA6C5C4FEA430C18BF7FEA6C5C1BD0A5
:100FA00001B050EA410C0CBF52EA430C91EA030F26
:100FB00002BF90EA020F0020704710F1000F91EA83
:100FC000030F58BF994208BF90422CBFD8176FEA51
:100FD000E37040F0010070474FEA410C7FEA6C5C1F
:100FE00002D150EA013C07D14FEA430C7FEA6C5C26
:100FF000D6D152EA033CD3D05DF8040B704700BF52
:101000008446104662468C461946634600E000BF9F
:1010100001B5FFF7B7FF002848BF10F1000F01BD71
:101020004DF808EDFFF7F4FF0CBF012000205DF83C
:1010300008FB00BF4DF808EDFFF7EAFF34BF0120C1
:1010400000205DF808FB00BF4DF808EDFFF7E0FF5A
:1010500094BF012000205DF808FB00BF4DF808EDAB
:10106000FFF7CEFF94BF012000205DF808FB00BF12
:101070004DF808EDFFF7C4FF34BF012000205DF8F4
:1010800008FB00BF4FEA410C7FEA6C5C02D150EADA
:10109000013C0AD14FEA430C7FEA6C5C02D152EA70
:1010A000033C02D14FF0000070474FF00100704741
:1010B0004FEA410212F5001215D211D56FF4787380
:1010C000B3EB625212D94FEAC12343F0004343EA23
:1010D000505311F0004F23FA02F018BF40427047FE
:1010E0004FF00000704750EA013005D111F0004088
:1010F00008BF6FF0004070474FF00000704700BF1E
:1011000084B000220092154B196B41F080011963E5
:10111000196B01F08001009100990192196B41F067
:1011200001011963196B01F001010191019902920A
:10113000196B41F004011963196B01F0040102916C
:10114000029903921A6B42F008021A631B6B03F0B8
:1011500008030393039B04B0704700BF00380240AC
:1011600072B6FEE700B595B03022002108A801F064
:10117000DBFD0023039304930593069307930193E8
:101180002B4A116C41F080511164126C02F08052B4
:101190000192019A0293274A116841F4804111603B
:1011A000126802F480420292029A0122039204938E
:1011B000052103A801F090F8002830D101230893FD
:1011C0004FF48033099302220E924FF480030F9361
:1011D00004231093A82111911292139308A800F0F0
:1011E00015FEF0B90F230393022304930023059304
:1011F0004FF4A05306934FF480530793052103A89F
:1012000001F06AF878B90223089300230B930E9338
:1012100008A800F0FBFD40B915B05DF804FBFFF72E
:101220009FFFFFF79DFFFFF79BFFFFF799FF00BFB1
:10123000003802400070004080B584B000F0EAFB46
:10124000FFF790FFFFF75CFF00F08EFA00F0AEFAB8
:101250001D4E1E4B3360012737711D4C2360022346
:1012600023711C4800F03AF81B4801F011FE30468B
:1012700000F0A4F8642000F0F9FB204600F09EF88E
:10128000642000F0F3FB0025029501954FF43478BB
:10129000CDF800800A2340F2DC523946304600F097
:1012A000C9F8642000F0E2FB02950195CDF80080BA
:1012B0000A2340F2DC523946204600F0BBF8642095
:1012C00000F0D4FBFEE700BFD80900200C0A002084
:1012D000F0090020540A0020A48E000808B5054B30
:1012E0001860054B1868002302221946806801F037
:1012F000D7FD08BDD40900200C000020022801D829
:101300000120704708B501F0E5FC092303600020C7
:1013100008BD000010B5013801280AD814464FF066
:10132000FF3392B20748006801F007FA40B920463F
:1013300010BD01F0CFFC092303604FF0FF30F7E749
:101340000520F5E7D4090020022801D800207047C5
:1013500008B501F0BFFC092303604FF0FF3008BD62
:1013600008B501F0B7FC092303604FF0FF3008BD5A
:1013700008B548B94FF0FF3301220848006801F072
:1013800042FA40B9012008BD01F0A4FC0923036022
:101390004FF0FF30F7E70520F5E700BFD409002044
:1013A00008B5022804D84FF400534B60002008BD54
:1013B00001F090FC09230360F8E7000000B583B05A
:1013C000184B1B786B2B03D1174B5B78F32B1BD07F
:1013D00000230093ADF8043003798DF80030F32337
:1013E0008DF80130AB238DF8023001238DF80330E6
:1013F0006B238DF80530642306226946006801F0EE
:101400009CF903B05DF804FB074B9B78022B05D0D9
:10141000E22BF6D1054801F03BFDF2E7044801F06C
:1014200037FDEEE7A40A00209C0A0020C08E0008C9
:10143000AC8E000810B584B000240094019402948E
:101440008DF80C404FF4486E069C0EFB04FE1C4CBD
:1014500084FB0E4C0CEB0E044FEAEE7CCCEB242C00
:1014600004798DF80040FD248DF801408DF80210BC
:10147000110A8DF803108DF804208DF805304FEA1D
:101480001C638DF806304FEA1C438DF807304FEA95
:101490001C238DF808308DF809C09DF81C308DF89C
:1014A0000A309DF820308DF80B306B238DF80C300E
:1014B00064230D226946006801F03FF904B010BDB5
:1014C000B7600BB6000000002DE9F04383B004467E
:1014D000394B1B786B2B03D1384B5B78362B18D0EC
:1014E000374B1B88ADF8043000238DF80630237984
:1014F0008DF8043036238DF805306B238DF80630D7
:101500006423032201A9206801F017F903B0BDE8A4
:10151000F0832A4DA8784000C0F10100FEF7C2FF19
:1015200006460F46E878FEF7BDFF0022254BFFF781
:1015300023F8804689462879FEF7B4FF0022224B23
:10154000FFF71AF802460B4640464946FEF75EFE94
:10155000804689466879FEF7A5FF00221B4BFFF7FE
:101560000BF802460B4640464946FEF74FFE8046C2
:101570008946A879FEF796FF42464B46FEF746FE9F
:1015800002460B4630463946FEF7F6FF08A3D3E97C
:101590000023FFF71BF900220D4BFEF7EDFF02467B
:1015A0000B46C4E904230B4801F010FCAEE700BF72
:1015B00000000000E0FFEF40A40A00209C0A002089
:1015C000A08E0008000070410000F0400000704054
:1015D00000807640D08E00082DE9F04182B00446AC
:1015E000254B1B786B2B03D1244B5B78352B18D004
:1015F000234B1B88ADF8043000238DF80630237987
:101600008DF8043035238DF805306B238DF80630C6
:101610006423032201A9206801F08FF802B0BDE81D
:10162000F081DFF8588098F802506D00C5F101058F
:1016300098F80300FEF736FF0022124BFEF79CFFDE
:1016400006460F4698F80400FEF72CFF32463B464C
:10165000FEF7DCFD06460F462846FEF723FF32461E
:101660003B46FEF789FF02460B46C4E902230648C3
:1016700001F0ACFBD2E700BFA40A00209C0A0020C6
:10168000A08E000800007040DC8E000882B00021AF
:1016900000910B4B5A6C42F480425A645A6C02F42B
:1016A00080420092009A01911A6C42F080521A64B2
:1016B0001B6C03F080530193019B02B0704700BF85
:1016C00000380240FEE7FEE7FEE7FEE7FEE7704770
:1016D0007047704708B500F0B7F908BD08B5024873
:1016E00001F086F908BD00BF0C0A002008B50248C9
:1016F00001F07EF908BD00BF540A002001207047A8
:1017000008B501F0E7FA162303604FF0FF3008BD7B
:1017100008B54FF0FF31FFF7F3FFFEE710B50346C2
:101720000C4A0D490D48006840B10C48006803445C
:10173000521A934206D8094A136010BD0748084C54
:101740000460F2E701F0C6FA0C2303604FF0FF30AB
:10175000F3E700BF0000022000040000080A002098
:10176000F80A00207047000008B50D480D4B0360D3
:101770004FF4E133436000238360C36003610C22B4
:1017800042618361C36100F0A8FF28B901220649C4
:10179000034801F08CFA08BDFFF7E2FCF6E700BF52
:1017A0000C0A0020004C0040A40A002008B50A489A
:1017B0000A4B03604FF4E133436000238360C3604E
:1017C00003610C2242618361C36100F086FF00B9AE
:1017D00008BDFFF7C5FCFBE7540A0020005000409D
:1017E000F0B58BB0002305930693079308930993F4
:1017F0000368394A934204D0384A93422BD00BB045
:10180000F0BD00240094364B1A6C42F400221A6496
:101810001A6C02F400220092009A01941A6B42F0B2
:1018200001021A631B6B03F001030193019B032365
:1018300005930222069208930823099305A92948D3
:1018400000F0F2F922462146342000F035F9342028
:1018500000F06AF9D3E700240294214B1A6C42F499
:1018600080121A641A6C02F480120292029A039493
:101870001A6B42F004021A631A6B02F0040203921C
:10188000039A04941A6B42F008021A631B6B03F06C
:1018900008030493049B4FF4805305930227069793
:1018A000032608960825099505A90F4800F0BCF9FC
:1018B00004230593069707940896099505A90B48F4
:1018C00000F0B2F922460121352000F0F5F835206C
:1018D00000F02AF993E700BF004C004000500040A0
:1018E000003802400000024000080240000C0240A4
:1018F00008B50268194B9A4200D008BD184B1A78F7
:101900006B2A0BD017490B681748C25401330B6080
:1019100001221349154801F0CAF9EEE7124B5B7832
:10192000362B09D0F32B03D0352B09D000230FE041
:101930000F48FFF743FDF9E70D48FFF7C5FDF5E751
:101940000B48FFF749FEF1E7074A0021D154013364
:10195000072BF9DD034B00221A60D9E7004C004049
:10196000A40A0020A80A00209C0A00200C0A0020DB
:10197000D8090020DFF834D0FFF7F4FE0C480D49F9
:101980000D4A002302E0D458C4500433C4188C42DA
:10199000F9D30A4A0A4C002301E013600432A24240
:1019A000FBD301F09DF9FFF747FC704700000220D0
:1019B00000000020B809002014930008B809002096
:1019C000F80A0020FEE7000010B504460E4B187818
:1019D0004FF47A73B3FBF0F30C4A1068B0FBF3F0EA
:1019E00000F0B0F868B90F2C01D901200AE00022FC
:1019F00021464FF0FF3000F05FF8054B1C600020DF
:101A000000E0012010BD00BF040000200000002005
:101A10000800002008B50B4B1A6842F400721A60E7
:101A20001A6842F480621A601A6842F480721A607E
:101A3000032000F02FF80F20FFF7C6FFFFF726FE68
:101A4000002008BD003C0240034A1168034B1B788C
:101A50000B441360704700BFAC0A00200400002054
:101A6000014B1868704700BFAC0A002038B5044627
:101A7000FFF7F6FF0546B4F1FF3F02D0044B1B7899
:101A80001C44FFF7EDFF401BA042FAD338BD00BF56
:101A900004000020074AD36823F4E0631B041B0CF6
:101AA000000200F4E060034343F0BF6343F40033FB
:101AB000D360704700ED00E000B5194BDB68C3F35D
:101AC0000223C3F1070CBCF1040F28BF4FF0040C34
:101AD00003F1040EBEF1060F18D9033B4FF0FF3E91
:101AE0000EFA0CFC21EA0C0199400EFA03F322EAEB
:101AF0000303194300280BDB0901C9B200F1604060
:101B000000F5614080F800135DF804FB0023E5E771
:101B100000F00F000901C9B2024B1954F4E700BFED
:101B200000ED00E014ED00E0002807DB00F01F02EC
:101B3000400901239340024A42F82030704700BF19
:101B400000E100E00138B0F1807F0BD24FF0E023DC
:101B50005861054AF02182F823100020986107227D
:101B60001A6170470120704700ED00E070B504462F
:101B7000866DFFF775FF94F83530DBB2022B06D087
:101B800080236365002384F83430012070BD05464E
:101B90002268136823F0160313602268536923F048
:101BA00080035361236CE3B12268136823F00803B8
:101BB00013602268136823F00103136023681B6815
:101BC00013F0010F11D0FFF74BFF431B052BF5D985
:101BD00020236365032084F83500002384F8343023
:101BE000D4E7A36C002BDFD1E3E7E26D3F23934002
:101BF000B360012384F83530002084F83400C5E751
:101C000090F83530DBB2022B03D0802343650120EE
:101C10007047052380F835300268136823F001030C
:101C2000136000207047000000230F2B00F2E480B7
:101C300070B582B060E085685E000324B44025EA98
:101C40000405CC68B4402C438460456825EA02054D
:101C50004C68C4F300129A402A4342605AE0DC0800
:101C6000083450F8246003F0070295000F22AA40C0
:101C700026EA020E0A69AA4042EA0E0240F824202F
:101C80005CE0072200E0002202FA0EF22A4302344E
:101C90005A4D45F824205A4A94686FEA0C0224EA07
:101CA0000C054E6816F4801F01D04CEA0405544C14
:101CB000A560E46802EA04054E6816F4001F01D02E
:101CC0004CEA04054E4CE560646802EA04054E687F
:101CD00016F4003F01D04CEA0405494C65602468C5
:101CE00022404D6815F4803F01D04CEA0402444C78
:101CF000226001330F2B7DD801229A400C6804EA40
:101D0000020C32EA0404F4D14C6804F00304013CF0
:101D1000012C90D94A6802F00302032A09D0C46852
:101D20005D000322AA4024EA02048A68AA402243F2
:101D3000C2604A6802F00302022A90D004684FEAA7
:101D4000430E032202FA0EF224EA02044A6802F069
:101D5000030202FA0EF2224302604A6812F4403F84
:101D6000C7D000220192274A546C44F48044546442
:101D7000526C02F480420192019A9C08A51C1F4AF1
:101D800052F8255003F003024FEA820E0F2202FAA6
:101D90000EF225EA02051C4A90423FF474AF02F5A8
:101DA000806290421AD002F58062904218D002F50B
:101DB0008062904216D002F58062904214D002F503
:101DC0008062904212D002F58062904210D002F5FB
:101DD000806290423FF455AF082255E7012253E755
:101DE000022251E703224FE704224DE705224BE789
:101DF000062249E702B070BD704700BF00380140BD
:101E0000003C01400038024000000240002800F081
:101E1000E08170B582B00446036813F0010F3BD037
:101E20009F4B9B6803F00C03042B2CD09C4B9B68AE
:101E300003F00C03082B21D06368B3F5803F4FD02B
:101E4000B3F5A02F52D0964B1A6822F480321A6054
:101E50001A6822F480221A606368002B50D0FFF7C2
:101E6000FFFD05468E4B1B6813F4003F14D1FFF7AE
:101E7000F7FD401B6428F5D90320B1E1884B5B686E
:101E800013F4800FD8D0864B1B6813F4003F03D0A7
:101E90006368002B00F09F81236813F0020F54D079
:101EA0007F4B9B6813F00C0F3ED07D4B9B6803F07B
:101EB0000C03082B33D0E368002B68D0794B012248
:101EC0001A60FFF7CDFD0546754B1B6813F0020F36
:101ED00054D1FFF7C5FD401B0228F5D903207FE14F
:101EE0006F4A136843F480331360B5E76C4B1A688C
:101EF00042F480221A601A6842F480321A60ABE71A
:101F0000FFF7AEFD0546664B1B6813F4003FC3D0D8
:101F1000FFF7A6FD401B6428F5D9032060E1604B64
:101F20005B6813F4800FC6D15D4B1B6813F0020F82
:101F300003D0E368012B40F05081594A136823F025
:101F4000F803216943EAC1031360236813F0080F03
:101F500042D063696BB3534B0122C3F8802EFFF765
:101F60007FFD05464E4B5B6F13F0020F34D1FFF738
:101F700077FD401B0228F5D9032031E1484A136858
:101F800023F0F803216943EAC1031360DDE7454B01
:101F900000221A60FFF764FD0546414B1B6813F0F1
:101FA000020FD2D0FFF75CFD401B0228F5D90320B9
:101FB00016E13C4B0022C3F8802EFFF751FD054689
:101FC000374B5B6F13F0020F06D0FFF749FD401B44
:101FD0000228F5D9032003E1236813F0040F77D01A
:101FE0002F4B1B6C13F0805F33D1002301932C4BDC
:101FF0001A6C42F080521A641B6C03F080530193F8
:10200000019B0125284B1B6813F4807F23D0A36814
:10201000012B34D0052B38D0214B1A6F22F001024E
:102020001A671A6F22F004021A67A368002B3DD0CA
:10203000FFF716FD06461A4B1B6F13F0020F46D131
:10204000FFF70EFD801B41F288339842F3D903203D
:10205000C6E00025D6E7144A136843F48073136082
:10206000FFF7FEFC0646104B1B6813F4807FCED1B1
:10207000FFF7F6FC801B0228F5D90320B0E0084AE0
:10208000136F43F001031367CFE7054B1A6F42F05C
:1020900004021A671A6F42F001021A67C5E700BF0F
:1020A000003802400000474200700040FFF7D8FCB3
:1020B0000646524B1B6F13F0020F08D0FFF7D0FCFF
:1020C000801B41F288339842F3D9032088E0EDB9B0
:1020D000A369002B00F08380484A926802F00C024A
:1020E000082A51D0022B17D0454B00221A66FFF761
:1020F000B7FC0446414B1B6813F0007F42D0FFF74A
:10210000AFFC001B0228F5D9032069E03B4A136CA1
:1021100023F080531364DBE7394B00221A66FFF784
:102120009FFC0546354B1B6813F0007F06D0FFF778
:1021300097FC401B0228F5D9032051E0E369226A8D
:102140001343626A43EA8213A26A5208013A43EADD
:102150000243E26A43EA0263284A5360284B0122A1
:102160001A66FFF77DFC0446244B1B6813F0007FC2
:1021700006D1FFF775FC001B0228F5D903202FE0DC
:1021800000202DE000202BE0012B2BD01B4B5B68A7
:1021900003F48001E269914226D103F03F02216AF3
:1021A0008A4223D1616A47F6C0721A40B2EB811F9E
:1021B0001ED103F44031A26A5208013AB1EB024F3A
:1021C00018D103F07063E26AB3EB026F14D1002000
:1021D00006E001207047012002E0012000E000201D
:1021E00002B070BD0120FBE70120F9E70120F7E70D
:1021F0000120F5E70120F3E70120F1E70038024074
:102200000000474208B5314B9B6803F00C03042BD8
:1022100057D0082B57D12D4B5A6802F03F025B680C
:1022200013F4800F2AD0294B5968C1F3881C4FEA58
:102230004C11B1EB0C006EEB0E0E4FEA8E1343EA1D
:1022400090638101091A63EB0E03DB0043EA5173CB
:10225000C90011EB0C0C43F10003590200234FEAB3
:102260004C2041EADC51FEF799FB184B5B68C3F345
:10227000014301335B00B0FBF3F025E0134B5968D9
:10228000C1F3881C4FEA4C11B1EB0C006EEB0E0E43
:102290004FEA8E1343EA90638101091A63EB0E0340
:1022A000DB0043EA5173C90011EB0C0C43F100034E
:1022B000990200234FEA8C2041EA9C51FEF76EFB05
:1022C000D3E7034800E0034808BD00BF00380240E0
:1022D00000127A000024F400002800F09B8070B502
:1022E0000D4604464F4B1B6803F007038B4208D290
:1022F000CBB24C4A1370136803F007038B4240F0D3
:102300008B80236813F0020F17D013F0040F04D052
:10231000454A936843F4E0539360236813F0080F31
:1023200004D0414A936843F4604393603E4A936803
:1023300023F0F003A1680B439360236813F0010FAF
:1023400032D06368012B21D09A1E012A25D9364A42
:10235000126812F0020F61D033498A6822F003023A
:1023600013438B60FFF77CFB06462F4B9B6803F003
:102370000C036268B3EB820F16D0FFF771FB801B72
:1023800041F288339842F0D9032042E0264A12688D
:1023900012F4003FE0D101203BE0234A126812F022
:1023A000007FD9D1012034E01E4B1B6803F00703E6
:1023B000AB4207D9EAB21B4B1A701B6803F0070344
:1023C000AB422DD1236813F0040F06D0164A936850
:1023D00023F4E053E1680B439360236813F0080F84
:1023E00007D0114A936823F46043216943EAC1038B
:1023F0009360FFF707FF0C4B9B68C3F303130B4A73
:10240000D35CD8400A4B18600A4B1868FFF7DCFA17
:10241000002070BD012070470120FAE70120F8E795
:102420000120F6E7003C024000380240EC8E000834
:102430000000002008000020014B1868704700BF12
:102440000000002008B5FFF7F7FF044B9B68C3F3BB
:102450008223034AD35CD84008BD00BF0038024045
:10246000FC8E000808B5FFF7E7FF044B9B68C3F339
:102470004233034AD35CD84008BD00BF0038024055
:10248000FC8E0008026802F10C0353E8003F23F4BD
:1024900090730C3242E800310029F3D1026802F156
:1024A000140353E8003F23F00103143242E80031E3
:1024B0000029F3D1036B012B05D0202380F8423093
:1024C000002303637047026802F10C0353E8003FE6
:1024D00023F010030C3242E800310029F3D1ECE77D
:1024E00090F84130DBB2212B01D002207047836885
:1024F000B3F5805F17D0036A5A1C02621A7803682A
:102500005A60C38C9BB2013B9BB2C3844BB9026837
:10251000D36823F08003D3600268D36843F040039C
:10252000D360002070470369002BE4D1036A1B8845
:102530000268C3F308035360036A02330362E0E7EF
:1025400038B504460268136923F44053C1680B434D
:10255000136183680269134342691343C2691A43D2
:102560000168CB6823F4164323F00C031343CB60BC
:102570000268536923F4407381690B435361036814
:10258000314A934206D002F58062934202D0FFF7AF
:1025900059FF01E0FFF766FFE369B3F5004F29D06B
:1025A0000021031849411B1841F10001C90041EA0B
:1025B0005371DB00181863684FEA83024FEA937384
:1025C00041F10001FEF7EAF9204DA5FB0032510967
:1025D000642303FB11031B013233A5FB03235B09B7
:1025E00003F0F00202EB011203F00F032168134421
:1025F0008B6038BD0023021843EB0301121841F130
:102600000001C90041EA5271D200101841F10001E5
:10261000626892185B41FEF7C1F90C4DA5FB0032D0
:102620005109642303FB1103DB003233A5FB0323B1
:102630005B095A0002F4F87202EB011203F007037F
:10264000216813448B60D4E7001001401F85EB51D3
:102650002DE9F04383B005460E4617469946DDF84E
:1026600028802C68246836EA04030CBF4FF0010C64
:102670004FF0000CBC4528D1B8F1FF3FF1D0FFF777
:10268000EFF9A0EB0900404523D8B8F1000F22D0A4
:102690002B68DA6812F0040FE3D0802EE1D0402ED0
:1026A000DFD01A6812F0080FDBD0002401941A68FA
:1026B00001925B680193019B2846FFF7E3FE082324
:1026C0006B6485F84040012000E0002003B0BDE8C5
:1026D000F0830320FAE70320F8E760B310B504465F
:1026E00090F8413013B3242384F841302268D36832
:1026F00023F40053D3602046FFF722FF22681369BA
:1027000023F4904313612268536923F02A03536131
:102710002268D36843F40053D36000206064202310
:1027200084F8413084F84230606310BD80F8403056
:10273000FFF756F8D7E7012070472DE9F04182B046
:102740001E4690F84130DBB2202B56D104460D4690
:102750009046002955D00AB901204FE00023436478
:10276000212380F84130FFF77BF90746A4F8248045
:10277000A4F82680A368B3F5805F02D04FF000086C
:1027800014E023692BB34FF000080FE0202384F8F6
:102790004130032032E038F8023B2268C3F30803DB
:1027A0005360E28C92B2013A92B2E284E38C9BB223
:1027B00093B100963B46002280212046FFF748FF58
:1027C0000028E3D1002DE6D015F8012B23685A60CC
:1027D000E7E7A8460025E9E700963B4600224021AE
:1027E0002046FFF735FF18B9202384F8413005E073
:1027F000202384F84130032000E0022002B0BDE82D
:10280000F0810120FAE72DE9F04182B01E4690F8F0
:102810004230DBB2202B59D104460D4690460029A8
:1028200058D00AB9012052E000234364222280F8E4
:1028300042200363FFF714F90746A4F82C80A4F89C
:102840002E80A368B3F5805F02D04FF000081CE033
:10285000236913B14FF0000817E0A846002514E0E3
:10286000202384F84230032031E023685B68C3F3FF
:10287000080328F8023B03E023685B682B700135EE
:10288000E28D92B2013A92B2E285E38D9BB2C3B17E
:1028900000963B46002220212046FFF7D9FE002863
:1028A000DED1002DE1D0A368B3F5805FE4D013B989
:1028B0002369002BE0D023685B6803F07F032B7053
:1028C000DDE7202384F84230002000E0022002B03F
:1028D000BDE8F0810120FAE7704708B50168CA68D1
:1028E00022F04002CA60202280F84120FFF7F4FF66
:1028F000002008BD704708B5806B0023C385C384E2
:10290000FFF7F8FF08BD704790F84230DBB2222B8A
:1029100069D18368B3F5805F4FD0826AB3F5805F79
:1029200004D0002B56D10369002B53D103685B6898
:102930001370836A01338362C38D9BB2013B9BB2E8
:10294000C385002B51D100B583B00268D36823F052
:102950002003D3600268D36823F48073D3600268D5
:10296000536923F001035361202380F84230002390
:102970004363036B012B33D100230363026802F12D
:102980000C0353E8003F23F010030C3242E80031FF
:102990000029F3D103681A6812F0100F06D0002244
:1029A00001921A6801925B680193019B818DFFF788
:1029B000AAFF002003B05DF804FB0269002AACD135
:1029C000826A03685B68C3F308031380836A023377
:1029D0008362B1E703685B6803F07F031370A8E7C5
:1029E000FEF786FFE5E702207047002070470000F1
:1029F00030B583B0044602681368D068516913F09B
:102A00000F0505D113F0200F02D010F0200F19D1BF
:102A10002DB111F0010119D110F4907F16D1216B65
:102A200001297DD013F0800F03D010F0800F40F00B
:102A3000198113F0400F03D010F0400F40F01681C1
:102A400003B030BD2046FFF75FFFF9E713F0010F39
:102A500006D010F4807F03D0626C42F00102626401
:102A600013F0040F04D019B1626C42F002026264E8
:102A700013F0020F04D019B1626C42F004026264D8
:102A800013F0080F07D010F0200F00D119B1626CBD
:102A900042F008026264626C002AD1D013F0200F69
:102AA00002D010F0200F29D123685B6903F04003A6
:102AB000626C12F0080F00D163B32046FFF7E2FC0E
:102AC00023685B6913F0400F20D0226802F11403E1
:102AD00053E8003F23F04003143242E8003100295C
:102AE000F3D1E36B73B1634A1A65E06BFFF788F8C3
:102AF0000028A5D0E06B036D9847A1E72046FFF7BB
:102B000003FFD1E72046FFF7F5FE99E72046FFF7E0
:102B1000F1FE95E72046FFF7EDFE002363648FE7A3
:102B200013F0100F3FF47EAF10F0100F3FF47AAFA8
:102B3000002301931368019353680193019B536928
:102B400013F0400F52D0E26B13685B689BB2002B0E
:102B50003FF476AFA18D99427FF672AFE385D369DA
:102B6000B3F5807F37D0226802F10C0353E8003FB1
:102B700023F480730C3242E800310029F3D122683B
:102B800002F1140353E8003F23F00103143242E83A
:102B900000310029F3D1226802F1140353E8003F09
:102BA00023F04003143242E800310029F3D12023FE
:102BB00084F8423000232363226802F10C0353E8B7
:102BC000003F23F010030C3242E800310029F3D11A
:102BD000E06BFEF7CBFF02236363A18DE38D9BB215
:102BE000C91A89B22046FFF78EFE29E7A18DE38D31
:102BF0009BB2C91A89B2E38D9BB2002B3FF420AF80
:102C000000293FF41DAF226802F10C0353E8003F96
:102C100023F490730C3242E800300028F3D122688C
:102C200002F1140353E8003F23F00103143242E899
:102C300000300028F3D1202384F84230002323639E
:102C4000226802F10C0353E8003F23F010030C321A
:102C500042E800300028F3D1022363632046FFF7E7
:102C600052FEEDE62046FFF73BFCE9E62046FFF783
:102C700034FEE5E6F728000881628285C2850023DC
:102C80004364222380F84230036923B10268D36889
:102C900043F48073D3600268536943F001035361C6
:102CA0000268D36843F02003D3600020704708B562
:102CB00090F84230DBB2202B08D149B10AB901208B
:102CC00008BD00230363FFF7D7FFF9E70220F7E70A
:102CD0000120F5E7014B1868704700BF0C00002089
:102CE00070B50D4E0D4D761BB61006D0002455F86C
:102CF000043B01349847A642F9D1094E094D761B91
:102D000006F0C2F8B61006D0002455F8043B013492
:102D10009847A642F9D170BD0893000808930008AF
:102D20001093000808930008830730B548D0541E5C
:102D3000002A3FD0CAB2034601E0013C3AD303F86F
:102D4000012B9D07F9D1032C2DD9CDB245EA0525DC
:102D50000F2C45EA054536D9A4F1100222F00F0CDC
:102D600003F1200EE6444FEA121C03F1100242E97F
:102D7000045542E9025510327245F8D10CF10102B6
:102D800014F00C0F03EB021204F00F0C13D0ACF193
:102D9000040323F003030433134442F8045B934217
:102DA000FBD10CF003042CB1CAB21C4403F8012B74
:102DB0009C42FBD130BD64461346002CF4D1F9E7A8
:102DC00003461446BFE71A46A446E0E70FB400B531
:102DD000074983B004AB086853F8042B816801935A
:102DE00000F036F903B05DF804EB04B0704700BFA3
:102DF0000C00002070B5054688B008460C46FDF76B
:102E00005FFF224EAA6B059001214318CDE90661B0
:102E100004A8022104940393AC680190029122B3A8
:102E2000636E13F0010FB4F90C309AB201D198051A
:102E300025D5910406D4626E43F4005322F4005267
:102E4000A3816266284601AA214603F0DDF9636E7C
:102E5000002814BF4FF0FF350A25DA0702D4A389F2
:102E60009B0506D5284608B070BD284602F0CEFF67
:102E7000D6E7A06D03F06AFB284608B070BDA06DD0
:102E800003F062FBB4F90C309AB2D2E7D88E000896
:102E9000024B01461868FFF7ADBF00BF0C000020D1
:102EA0002DE9F043694CD4F8008083B004460E4607
:102EB00017461D46B8F1000F03D0D8F83830002B64
:102EC00077D0022F05D0012F00F2AC80002DC0F288
:102ED000A980636EDA0752D52146404602F062FFB0
:102EE000216B41B104F14003994202D0404603F006
:102EF00085F800232363B4F90CC000231CF0800F75
:102F0000A361636064D12CF44A6C2CF0030C022F93
:102F1000A4F80CC06AD001AB6A462146404603F0D3
:102F200087FBA3891843A081002D2FD0002E2ED01F
:102F3000D8F83830002B38D0009B2660AB42B4F96B
:102F40000C301CBF43F40063A381012F04BF43F086
:102F50000103A3819AB213F00803C4E904652CD0DD
:102F6000D1075DD56D42A561656E002315F00105A1
:102F7000A36027D00025284603B0BDE8F083A389CD
:102F80009B05A9D4A06D03F0DFFAA5E7009D2846B4
:102F900003F07EFB0646002847D0A38943F0800358
:102FA000A381D8F83830002BC6D1404602F02EFF5E
:102FB000C2E7404602F02AFF83E7A360656E15F082
:102FC0000105D7D1930524D5284603B0BDE8F08389
:102FD0002169404603F012F8B4F90CC02CF44A6C95
:102FE0002CF0030C022FA4F80CC094D10025002271
:102FF00004F14303A2600122C4E904322360636E3A
:103000004CF0020CD807A4F80CC0DDD41CF4007FEF
:10301000DAD1A06D03F09AFA284603B0BDE8F08338
:10302000A560CBE74FF0FF35CEE7DDF80090A9456E
:1030300004D0484603F02CFB064620B9B4F90CC076
:103040004FF0FF35D3E74D46A7E700BF0C00002047
:103050002DE9F04FD5B01C460791914605460990E1
:1030600003F06AFA0268179210460E94FDF728FEE4
:1030700016901DB1AB6B002B00F02A82079A536E9D
:10308000DD0740F13881B2F90C2091B28F0409D4E8
:10309000079B42F400529A8191B21A465B6E23F468
:1030A000005353660E0740F1CB80079B1B69002B32
:1030B00000F0C68001F01A030A2B00F0CF80002434
:1030C0002BAB4D46CDE92944CDE91944CDE91B444C
:1030D000129428939846189400230B940024CDE969
:1030E00014342B78002B00F09D81AA4604E01AF8D6
:1030F000013F002B00F0C780252BF8D1BAEB050665
:1031000040F0C5809AF80030002B00F08B8100233E
:103110004FF0FF329AF801608DF883300A930AF17C
:10312000010A08921F462B244FF020090AF1010AD8
:10313000A6F120035A2B00F2ED80DFE813F0EB023A
:10314000EB00EB00E602EB00EB00EB006A00EB00AB
:10315000EB005C028002EB0067028A02EB00850252
:103160005B005B005B005B005B005B005B005B0087
:103170005B00EB00EB00EB00EB00EB00EB00EB0087
:103180007A01EB00F801D2017A017A017A01EB00B1
:10319000EB00EB00EB00E102EB00EB002D02EB009B
:1031A000EB00EB000202EB00A402EB00EB00830754
:1031B000EB00EB00EB00EB00EB00EB00EB00EB00B7
:1031C0007A01EB00F801D4017A017A017A01C70291
:1031D000D401CD01EB00D402EB006C022F02B5024A
:1031E000CD01EB0002027E008007EB00EB006107DF
:1031F000EB007E00A6F1300300221AF8016B02EB0F
:10320000820203EB4202A6F13003092BF5D90A92A0
:103210008EE7DDF824B0584603F08EF943681B931F
:103220001846FDF74DFD1C900646584603F084F9FC
:1032300083681993002E40F0CD869AF8006075E7F8
:10324000079D0998294601F0ADFC002841F01C8338
:10325000A98901F01A030A2B7FF431AF079AB2F95A
:103260000E30002BFFF62BAF536ED80702D4890522
:1032700041F13B810799099823464A4655B0BDE87C
:10328000F04F01F04FBCBAEB050600F0CB802A9B53
:1032900033442A93299B0133072BC8E9005629930D
:1032A00005DC08F108080B9B33440B932AE70799C8
:1032B000099828AA04F0C0FB80B90DF1AC08F2E728
:1032C0000799099828AA04F0B7FB002800F09B8012
:1032D0000D9B1BB10998194602F090FE079A536E98
:1032E000D90740F1EA8093895B0601F1D9820B98F6
:1032F00055B0BDE8F08F079BB3F90C20900591B253
:103300003FF5C4AE1D46986D03F01EF9B5F90C20CB
:1033100091B2BBE6002E00F0858000228DF8EC60B3
:103320008DF883200123CDE90C32069308920F9289
:10333000139210923BAD17F0020302D006990231AE
:10334000069117F0840B07D10A990698A1EB0009A2
:10335000B9F1000F00F370832A9C8AB1299A0DF10C
:10336000830101320134C8F80010072A4FF001012F
:103370002A942992C8F8041000F3B68308F10808CB
:1033800083B1299B21AA01330234C8F80020072BFE
:103390004FF002022A942993C8F8042000F3B28364
:1033A00008F10808BBF1800F00F06982089B0C9AB5
:1033B000A3EB020BBBF1000F00F3AA82FB0500F1A7
:1033C00000820C9BC8F804301C44299BC8F80050AC
:1033D0000133072B2A94299300F3228308F108086C
:1033E000780705D50A9B069A9D1A002D00F396834F
:1033F000DDE90A2306998A42ACBF9B185B180B9340
:10340000002C7FF45DAF002329930D9B1BB10D9918
:10341000099802F0F3FD0DF1AC0855462B78002B0E
:103420007FF463AE2A9B002B41F0D38100232993C4
:1034300054E70E9B073323F00702F2E80234CDE98C
:103440001434DDE9143424F000440E9299461846F1
:103450002146B54B4FF0FF32FDF714FE002840F037
:10346000EF84B14B484621464FF0FF32FDF7ECFDAB
:10347000002840F0E584DDE9140100220023FDF777
:10348000D9FD002840F067879DF88320A74DA84B01
:1034900027F080070321472EC8BF1D4600230D9348
:1034A00006910C9108930F9313931093002A3FF405
:1034B00042AF069B013306933DE7079B9B899A0524
:1034C0003FF512AF079CA06D03F040F8A3890BE70E
:1034D000099802F09BFCD1E59AF8006047F02007BC
:1034E00024E647F01007BA060E9B40F13B840733F1
:1034F00023F007031A465B6852F8084B0E92994670
:10350000002BC0F24C84089B013300F0D88254EAAF
:10351000090327F0800B40F0D382089B002B40F07A
:10352000D4825F46002308930C9354AD1DE10E9B9B
:10353000002253F8041B8DF883208DF8EC100E93B5
:10354000F0E60E9C089B54F8045B4FF000098DF8E0
:103550008390002D00F093855A1C00F051861A4686
:1035600049462846FDF71CFC0D90002801F00E810D
:103570000D9BCDF820905B1B0C930E9423EAE37314
:103580009DF883200693CDF83490CDF83C90CDF88B
:103590004C90CDF8409089E747F0100717F02009CC
:1035A00000F0D2830E9B073323F00703D3F8049077
:1035B00053F8084B0E9327F4806B002300228DF8FC
:1035C0008320089A511C00F0B88054EA09012BF0BE
:1035D000800740F0B180002A40F0F685002BA1D191
:1035E0001BF001030C9300F0148430238DF84F314D
:1035F0000DF24F15B9E00E9B53F8042B0A92002AE6
:1036000080F2DA830A9A0E9352420A929AF8006084
:1036100047F004078AE5BD0600F1D184FC0600F1FD
:10362000D885780600F1A586B90540F1D2850E9BB4
:103630000B9953F8042B0E9311705546EEE69AF849
:1036400000608DF8834071E59AF8006047F08007CC
:103650006CE5524612F8016B2A2E01F03F82A6F16A
:103660003003092B924698BF002201F2BC801AF861
:10367000016B02EB820203EB4202A6F13003092B3D
:10368000F5D9089254E547F0100B1BF0200900F023
:1036900076830E9B073323F00703D3F8049053F887
:1036A000084B0E93012389E70E9B53F8044B0E93AE
:1036B000302378268DF884301E4B189347F0020B88
:1036C0008DF885604FF00009022377E79AF80060D3
:1036D000682E03BF9AF8016047F400770AF1010AE7
:1036E00047F0400722E59AF800606C2E03BF9AF875
:1036F000016047F020070AF1010A47F0100715E5BD
:103700009AF8006047F0080710E59AF8006047F063
:1037100001070BE59DF88330002B7FF48EAD9AF8FE
:1037200000608DF8839001E5FFFFEF7F088F0008B0
:103730000C8F0008188F0008BB46012B00F0C081D9
:10374000022B54AD20D1189A04F00F032409D35C46
:1037500005F8013D44EA09744FEA191954EA0903CE
:10376000F2D154AB5B1B5F460C9308990C989DF803
:10377000832081424FF00003B8BF01460D930691AC
:103780000F931393109391E604F00703E40844EABF
:1037900049744FEAD909303354EA09012A4605F839
:1037A000013DF1D11BF0010FDBD0302BD9D03023FC
:1037B000023A05F8013C54AB9B1A5F460C93154640
:1037C000D3E7652E40F3E680DDE9140100220023F3
:1037D000FDF726FC002800F0DC81299BBF4AC8F8D1
:1037E0000020013301340122072B2A942993C8F8C1
:1037F000042000F3CC8408F10808229B129A93421B
:1038000080F2D682169B179A1C44C8E90023299B94
:103810002A940133072B299300F3248408F1080824
:10382000129B5D1E002D7FF7DBAD102D299BDFF86D
:10383000B09240F3BD8449462246B946DDF824B033
:10384000079C10260F4605E008F10808103D102DD2
:1038500040F3AA8401331032072BC8E90076CDE982
:103860002932F1DD28AA2146584604F0E5F800285F
:103870007FF42EADDDE929320DF1AC08E6E70A9BB5
:10388000069AA3EB020BBBF1000F7FF78FADBBF1E4
:10389000100F299ADFF848922CDD1D9621464E46DE
:1038A000079CDDF82490102306E0ABF1100BBBF170
:1038B000100F08F108081ADD01321031072AC8E993
:1038C0000063CDE92921F0DD28AA214648460DF103
:1038D000AC0804F0B1F800287FF4FAACABF1100B9F
:1038E000BBF1100FDDE929214FF01003E4DCB146F4
:1038F0001D9E0C4601325C44072ACDE92924C8F8F4
:103900000090C8F804B000F3A08308F108084DE562
:10391000BBF1100F299ADFF8C8912DDD41462046F2
:10392000A8464C46079DDDF82490102306E0ABF135
:10393000100BBBF1100F01F1080119DD013210303D
:10394000072AC1E90043CDE92920F0DD28AA29464C
:10395000484604F071F800287FF4BAACABF1100BC4
:10396000BBF1100FDDE929202BA94FF01003E5DC96
:103970004546A1468846044601325C44072ACDE903
:103980002924C8F80090C8F804B000F3D08108F1E9
:10399000080813E5129B012B40F38081299EC8F88B
:1039A0000050013601340123072E2A942996C8F8C5
:1039B000043000F37C8308F10808169B179A01363F
:1039C0001C44072EC8E90023CDE9296400F37C8359
:1039D00008F10808DDE9140100220023FDF720FBAF
:1039E000002840F07881129B0136013B01351C44D0
:1039F000072EC8F800502996C8F804302A9400F31E
:103A00005D8108F108081A9BC8F8043001361C448F
:103A1000072E24ABCDE92964C8F800307FF7DEAC6F
:103A20000799099828AA04F007F800287FF450ACF9
:103A30002A9C0DF1AC08D3E4B9F1100FDDE929217E
:103A40002BDDCDE91D3B1F96DDF824B04E4610243A
:103A5000A946079D04E0103E102E08F1080817DD66
:103A60000132204B1031072AC8E90034CDE9292161
:103A7000F1DD28AA294658460DF1AC0803F0DCFF19
:103A800000287FF425AC103E102EDDE92921E7DC6B
:103A9000DDE91D3B4D46B1461F9EC8F8049001323A
:103AA00009EB0104072A0F49C8F80010CDE92924C1
:103AB00000F351839DF8832008F108084DE4BB46CC
:103AC0000A2C79F1000380F00C83303401238DF847
:103AD0004F415F460C930DF24F1546E6488F0008A4
:103AE0005C8F00084C8F0008079909981D9328AA3D
:103AF00003F0A2FF00287FF4EBAB2A9C1D9B0DF185
:103B0000AC083DE40799099828AA03F095FF00281E
:103B10007FF4DEAB2A9C0DF1AC0843E4102D299B09
:103B200021DD099FDDF81C90102604E0103D102DCA
:103B300008F1080817DD0133BB4A1034072BC8E928
:103B40000026CDE92934F1DD28AA494638460DF191
:103B5000AC0803F071FF00287FF4BAAB103D102DC4
:103B6000DDE92934E7DC0133AF4AC8F804502C44BE
:103B7000072BCDE92934C8F800207FF739AC079925
:103B8000099828AA03F058FF00287FF4A1AB2A9CCB
:103B90002EE42299002940F31481DDF84090129B15
:103BA0009945A8BF9946B9F1000F0BDD299B013358
:103BB0004C44072BC8E900592A94299300F39A85AD
:103BC00008F10808109EB9F1000FA8BFA6EB09067E
:103BD000002E00F34683DDF840B07905AB4400F1D8
:103BE000CE84229B129A934202DBFA0740F1B883FB
:103BF000169A17991444C8E90012299A2A94013296
:103C0000072A299200F3838508F10808129AAE1852
:103C1000A6EB0B06D51AAE42A8BF2E46002E0DDD30
:103C2000299BC8F800B001333444072BC8F804605E
:103C30002A94299300F3F18508F10808002EA8BF03
:103C4000AD1B002D7FF7CCAB102D299BDFF8DC914D
:103C500040F3AE8249462246B946DDF824B0079CBF
:103C600010260F4605E008F10808103D102D40F31E
:103C70009B8201331032072BC8E90076CDE9293247
:103C8000F1DD28AA2146584603F0D6FE00287FF42D
:103C90001FABDDE929320DF1AC08E6E7FE073FF581
:103CA0007DAE299EC8F80050013601340123072E4D
:103CB0002A942996C8F804307FF7A3AE079909988B
:103CC00028AA03F0B9FE00287FF402ABDDE92964DD
:103CD0000DF1AC0897E6129B5D1E002D7FF793AEA9
:103CE000102DDFF8489140F37F8222460897099C07
:103CF000079F4FF0100B05E008F10808103D102D4C
:103D000040F3708201361032072EC8E9009BCDE9DE
:103D10002962F1DD28AA3946204603F08DFE0028ED
:103D20007FF4D6AADDE929620DF1AC08E6E7079930
:103D3000099828AA03F080FE00287FF4C9AA2A9CCB
:103D40000DF1AC08FFF73ABB17F0100372D117F072
:103D5000400200F0BD820E9A52F8044B0E92994632
:103D6000A4B228E453F8044B0E93FB0656D47D0608
:103D700051D544F3C0394B4624B2FFF7C1BB1BF009
:103D8000100340F036811BF0400200F092820E9A40
:103D900052F8044B0E929946A4B201230EE42D234F
:103DA00064428DF8833069EB4909BB46012308E47E
:103DB000F8077FF515AB25E59AF800600E93FFF73D
:103DC000B5B9299B1A4AC8F80020013301340122F1
:103DD000072B2A942993C8F8042000F3708408F173
:103DE0000808002940F01E82129A07F001031343CD
:103DF0003FF4F6AA169B1799E218C8E90013299B0D
:103E00002A920133072B299300F3618308F10808F4
:103E100019E254ADA9E4B80500F1B4824FEAE4799F
:103E20004B46FFF76DBB00BF4C8F00085C8F00084E
:103E3000488F00080E9B53F8044B0E93FFF7BBBB53
:103E4000DDE9140102460B46FDF71CF9002840F09D
:103E5000A085612E00F05085412E00F09982089BCC
:103E6000013326F02003069300F08F85472B00F0E6
:103E70007985DDE9141247F480730F931346002B04
:103E8000C0F2ED850C9300231D938B460D93069B8A
:103E9000462B00F04A84452B00F04F85089901918C
:103EA00026A9049123A9039122A9029102210C9B26
:103EB000099800915A4600F083FF069B472B054660
:103EC00040F01C8617F0010FB9460F9F40F0D984CF
:103ED000269B5B1B1293069B472B00F01883069BC7
:103EE000462B00F05F84229B1093109B069A013BA7
:103EF000412A229300F0AA85F2B20021002BB8BF1C
:103F0000109B8DF89020BABFC3F101032D222B2204
:103F1000092B8DF8912040F363850DF19F04BD4F6F
:103F20002246104687FB0321DA17C2EBA10202EBFF
:103F30008201A3EB4101303100F8011C19466329CD
:103F4000134600F1FF32ECDC3033D9B2831E9C42C1
:103F500002F8011C40F2CE8513460DF1920201E0F9
:103F600013F8011B02F8011B9C42F9D10DF1A103CA
:103F70000DF192021B1A134424AA9B1A1A93129B46
:103F80001A9A012B1A440C9240F372850C9B169AD4
:103F900013440C930C9A002329F4806722EAE272FE
:103FA00047F480770F930692139310931D9B002B79
:103FB00040F0DE829DF883200893FFF777BA0E9BCE
:103FC0000B9853F8041B0E93C217C1E90002554623
:103FD000FFF724BA199B002B3FF42FA9199B1B78DC
:103FE000002B3FF42AA99AF8006047F48067FFF796
:103FF0009DB80E9B53F8044B0E930123FFF7DEBAD6
:10400000854B189317F0200949D00E9B073323F0F6
:104010000703D3F8049053F8084B0E93F80709D51B
:1040200054EA090306D030238DF8856047F0020773
:104030008DF8843027F4806B0223FFF7BFBABB46AC
:10404000FFF723BB754B1893DCE70799099828AA5B
:1040500003F0F2FC00287FF43BA92A9C0DF1AC0888
:10406000FFF7A4B90799099828AA03F0E5FC0028EE
:104070007FF42EA92A9C0DF1AC08FFF7D1BB062BCB
:10408000294628BF062308950D952A460693644DB8
:104090000E940C930F9113911091FFF707BA17F03C
:1040A000100369D00E9B53F8044B0E93B6E70799A3
:1040B000099828AA03F0C0FC00287FF409A9DDE9CB
:1040C00029640DF1AC0878E40799099828AA03F04F
:1040D000B3FC00287FF4FCA8DDE929640DF1AC08ED
:1040E00078E40BF480630022CDE90CA80696DDF895
:1040F000648054AF16469A460CE000232046494699
:104100000A22FCF74BFC0A2C79F100031BD304466E
:1041100089462F4620460A2200234946FCF73EFCEA
:1041200030327D1E013607F8012CBAF1000FE4D0C1
:1041300098F800309E42E0D1FF2EDED00A2C79F1B3
:10414000000380F0F480CDF864801296DDE90CA8BD
:10415000069EFFF706BB079909981D9328AA03F04E
:104160006BFC00287FF4B4A89DF883202A9C1D9B3B
:104170000DF1AC08FFF7F1B817F0400200F0B6807F
:104180000E9A52F8044B0E929946A4B246E707994C
:10419000099828AA03F050FC00287FF499A82A9CCB
:1041A0000DF1AC08FFF729BB14463A464F4691463D
:1041B00001332C44072BC8F80090C8F80450CDE90F
:1041C00029347FF70BA92BE4012BBB467FF4B8AA57
:1041D0007BE40E9B0B9953F8042B554611600E930C
:1041E000FFF71CB9089F144601362C44072ECDE971
:1041F0002964C8F80090C8F804507FF702AC5DE568
:104200002846CDF820900E94FCF75AFD03460C90FA
:10421000FFF7B4B967666666188F00082C8F000830
:10422000408F0008169B1798E218C8E90003299BE5
:104230002A920133072B299300F3498108F10808DA
:104240000029C0F2FA821299C8F8005001338C1884
:10425000072BCDE92934C8F804107FF7BFA8FFF772
:10426000DFBB102E299BDFF8C09252DD4846424644
:104270002146A846B946099C079D4FF0100B0746FA
:1042800003E00832103E102E3DDD01331031072BC4
:10429000C2E9007BCDE92931F3DD28AA2946204671
:1042A00003F0CAFB00287FF413A8DDE929312BAA0B
:1042B000E8E70E9B1BF4007914BF53F8044B53F846
:1042C000044B0E931CBF9146E4B20123FFF776B96D
:1042D0000E9B17F4007914BF53F8044B53F8044BAA
:1042E0000E931CBF9146E4B2FFF765B90E9B17F41D
:1042F000007914BF53F8044B53F8044B0E931CBFC2
:104300009146E4B28AE6454690463A460C464F4608
:10431000914601333444072BCDE92934C8F8009085
:10432000C8F8046000F3E68008F1080853E41C9B19
:104330001B99ED1A1A46284603F010FB98F8013035
:104340000BB108F10108204649460A220023002645
:10435000FCF724FBDBE62D228DF88320FFF796B8CF
:10436000129AAE18A6EB0B06D51AAE42A8BF2E467F
:1043700064E40E9B0B9953F8042B0E931180554661
:10438000FFF74CB844F3C0194B4664B2FFF7B8B816
:1043900030238DF8843058238DF88530089B632BAB
:1043A00047F0020400F39B8200230D933BADDDE94F
:1043B000141247F481730F931346002B2746C0F263
:1043C00020820C9326F02003069300238B461D9336
:1043D000612E00F0ED82412E7FF459AD22AA0C9996
:1043E000584603F02BFA00224FF07F53FCF7C4F835
:1043F00002460B46CDE9102300220023FCF710FEF5
:1044000008B101232293494B0C93089BCDE912A6D6
:10441000CDE91E78DDF830A0DDE9106703F1FF3942
:10442000AB46109506E00022002309F1FF39FCF7A6
:10443000F7FDE8B93E4B002230463946FCF79CF8C0
:104440000F460646FCF734FE0446FCF72BF80B46F5
:10445000024639463046FBF7D7FE1AF80430B9F168
:10446000FF3FD8464D460BF8013B06460F46DAD1D2
:10447000304639462F4BDDF848A0139ECDF84880D2
:104480000022A946DDF87C80109D1E9FCDE9100119
:10449000FCF7EEFD002840F03482DDE91001254BE9
:1044A0000022FCF7BDFD10B1E10700F12A824B4666
:1044B000002B06DB01335B4430220BF8012B5B45FC
:1044C000FBD1ABEB0503B94612930F9F03E50799A8
:1044D000099828AA03F0B0FA00287EF4F9AEDDE9C5
:1044E000293222990DF1AC08AAE6906D02F02EF85F
:1044F000FEF7C0BE0799099828AA03F09DFA002884
:104500007EF4E6AE2A9C0DF1AC08FFF764BB229B5B
:104510001093DA1C02DB089A93420DDD023E26F06E
:1045200020030693E1E400BF5C8F00082C8F000895
:10453000000030400000E03F109B129A9342C0F20E
:10454000568119F0010F00F08782169A13440C93DC
:1045500019F4806F03D0109B002B00F350820C9B4A
:1045600023EAE3730693672600230F9313931DE555
:104570002D2200238DF883200893FEF79ABF129B0B
:10458000CDF830A04246DDF84C801097EB18089328
:104590005E46199FDDF87090DDF824A0DDF81CB0B0
:1045A0000F9B13952146B8F1000F2ED0002B6BD135
:1045B000013F08F1FF381B9BC2E90039299B0133F9
:1045C0004944072B2A91299362DC0832089B3878EA
:1045D0009B1B8342A8BF0346002B1C460ADD29987B
:1045E000013019440728C2E900632A9129905ADC56
:1045F00038780832002CACBF051B0546002D15DCB1
:1046000006440F9BB8F1000FD0D1002B3CD1DDE95F
:104610001235EB189E421997B346DDF830A0109F73
:1046200090460C4628BF9B46FFF7DBBA102D299811
:104630001DDD102404E0103D102D02F1080216DDEE
:104640000130AC4B10310728C2E90034CDE9290113
:10465000F1DD28AA5946504603F0EEF900287EF411
:1046600037AE103D102DDDE929012BAAE8DC013021
:10467000A04B556029440728CDE9290113602CDCA3
:10468000387808320644BCE70F9B013B0F9392E752
:1046900028AA5946504603F0CFF900287EF418AEF8
:1046A0002A992BAA92E728AA5946504603F0C4F942
:1046B00000287EF40DAE38782A992BAA9AE707993C
:1046C000099828AA03F0B8F900287EF401AE2299CF
:1046D0002A9C0DF1AC08FFF784BB28AA5946504626
:1046E00003F0AAF900287EF4F3AD38782A992BAAB2
:1046F000064486E70799099828AA03F09DF900283F
:104700007EF4E6AD2A9C0DF1AC08FFF75BBA079981
:10471000099828AA03F090F900287EF4D9AD229BCD
:104720002A9C0DF1AC08FFF771BA0899019126A9EE
:10473000049123A9039122A9029103210C9B0998BA
:1047400000915A4600F03CFB0378302B054600F000
:104750009581229B089AB94613440F9FEC180C9937
:10476000584600220023FCF75BFC10B12346FFF7FC
:10477000B0BB269BA342BFF4ACAB30215A1C26929F
:104780001970269B9C42F9D8FFF7A3BB089B9DF8A4
:1047900083200E9406930C9308900F901390109022
:1047A000FEF784BE229A1092002A40F38181089974
:1047B00009F001030B4340F05581109B0C936626D2
:1047C00019F4806F40F01C810C9B23EAE37306937D
:1047D000CAE60799099828AA03F02EF900283EF4A2
:1047E00025AEFEF77BBD00230893FEF7A1BC129B0C
:1047F000169A9A18109B0C92002B40F34D81672655
:10480000DEE726F020030693DDE914349B4604F12D
:1048100000430C932D231D93DAE50799099828AAE4
:1048200003F00AF900287EF453AD229D129B2A9CC6
:104830005D1B0DF1AC08FFF701BA4E421031DFF8F5
:10484000B49034DA4146DDF824B0A8461024079D20
:1048500003E00831103E102E27DD01331032072B04
:10486000C1E90094CDE92932F3DD28AA294658464A
:1048700003F0E2F800287EF42BADDDE929322BA904
:10488000E8E7089BEC186AE7079B5B6EDD0707D437
:10489000079B9B899C0503D4079B986D01F056FEEE
:1048A0004FF0FF330B93FEF722BD45468846013398
:1048B0003244072BCDE92932C8F80090C8F80460CB
:1048C0007FF7A4AA0799099828AA03F0B5F8002849
:1048D0007EF4FEACDDE929320DF1AC08B3E40998B1
:1048E000591C01F0DDFE0546002800F00D810D90F9
:1048F0005DE500BF5C8F000830238DF8843078239D
:104900004AE5129B26930C9B1BF8012CD97B8A420B
:104910005B4609D1302003F8010C269B5A1E2692D3
:1049200013F8012C9142F6D0392A0BBF0C9A0132B0
:10493000927AD2B203F8012CC3E508990C9B09982E
:104940004C1C26A9049123A9039122A902910221BA
:104950005A460194009100F033FA0546B9462C44BA
:104960000F9FFCE6089B002B08BF0123089347F428
:1049700080730F93159B002BC0F2AE80DDF850B012
:104980001D900C930D90FFF789BA06230893FFF74B
:1049900070BA159B604D002BB4BF2D229DF883206B
:1049A0005E4BB8BF8DF8832027F08007FEF772BDFD
:1049B00022AA0C99584602F041FF00224FF07F5383
:1049C000FBF7DAFD02460B46CDE910230022002357
:1049D000FCF726FB08B101232293514B0C9314E5FD
:1049E000002962D130228DF892200DF193023033EC
:1049F00002F8013B24ABD31A1A93FFF7C0BA67261B
:104A000019990B78FF2B7BD00024109A204603E0E5
:104A100001300131FF2B08D0934206DAD21A4B78CD
:104A2000002BF5D10B780134F4E719911092139013
:104A30000F940F9A139B1C9913440C9A01FB0323A8
:104A40000C9323EAE3730693FFF7B0BA06F10F0263
:104A5000D2B20121FFF752BA109B0C9378E50023E4
:104A60000D93D1E6169BD31819440C916626A7E640
:104A700019F0010F3FF48EAAFFF788BA0C99584637
:104A800000220023FCF7CCFA00287FF462AE089BDA
:104A9000C3F1010322935DE6C3F101031A4422EA44
:104AA000E2730C92069367265EE50DF192029EE793
:104AB000089A09F0010959EA020304D10123069377
:104AC00066260C9350E5169B01331A4422EAE273E2
:104AD0000C920693662647E50D9095E60E9B9AF894
:104AE0000160924653F8042B0E9342EAE272089258
:104AF000FEF71CBB02231A93FFF741BA089C2DE76F
:104B000000230F93139394E7079A938943F040038C
:104B10009381FEF7E3BB00BF108F0008148F0008DD
:104B2000188F0008F0B51F468B89ADF26C4D23F04D
:104B30000203ADF80C304B6E1993CB89ADF80E30F3
:104B4000CB6907934B6A09931AAB009304934FF414
:104B50008063154606460293059316A800230C466B
:104B6000069301F0EDFC2A463B4669463046FEF7C7
:104B70006FFA051E07DB6946304601F013F900287D
:104B800018BF4FF0FF35BDF80C305B0603D5A38985
:104B900043F04003A381169801F0D4FC28460DF29F
:104BA0006C4DF0BD38B5334B1B6805460C460BB158
:104BB0009A6B12B3B4F90C3018079AB225D5216953
:104BC00000292DD012F0010007D00020A0606069FC
:104BD0004042A06139B1002038BD950758BF6069D7
:104BE000A0600029F7D1120658BF0846F4D543F05B
:104BF0004003A3814FF0FF3038BD184601F006F99D
:104C0000B4F90C3018079AB2D9D4D1062AD5520774
:104C100014D4216943F00803A3819AB20029D1D1A9
:104C200002F42070B0F5007FCCD02146284601F078
:104C30008FFCB4F90C3021699AB2C3E7216B51B1F2
:104C400004F14002914204D0284601F0D7F9B4F9AA
:104C50000C300022226321690022C4E9001223F0F3
:104C60002403D7E7092243F040032A604FF0FF30C6
:104C7000A38138BD0C000020024B13B1024800F0A4
:104C800005B8704700000000315F000800230146AE
:104C90001A46184603F000BE2DE9F04F03690C696F
:104CA000A34283B0C0F28680013C01F11405A30049
:104CB00000F11408009355F8243058F824200133EB
:104CC0008A469A4208EB8401814605EB84070191EC
:104CD000B2FBF3F638D30023AE4640469B465EF85F
:104CE000041B02681FFA81FC06FB0C33090C4FEA17
:104CF000134C06FB01CC99B2ABEB01011FFA8CF30C
:104D000011FA82F1C3EB124202EB214289B241EA6D
:104D10000241774540F8041B4FEA1C434FEA224BFF
:104D2000DDD2009B58F8033073B9019B043B9845D2
:104D300004D307E0984504F1FF3403D253F8042963
:104D4000002AF7D0C9F810405146484602F062FAEE
:104D500000282BDB01364046002355F8041BD0F811
:104D600000C08AB29A1A0B0C12FA8CF2C3EB1C43E5
:104D700003EB224392B242EA0342AF4240F8042BD3
:104D80004FEA2343E9D258F8242008EB84036AB998
:104D9000043B984504D307E0984504F1FF3403D25F
:104DA00053F80429002AF7D0C9F81040304603B060
:104DB000BDE8F08F002003B0BDE8F08F00000000D8
:104DC0002DE9F04F016C99B090469946CDE90489E0
:104DD000259D044641B1426C4A60012393408B609B
:104DE00001F0BCFF00232364B9F1000AB4BF012322
:104DF00000232B60764BBCBF2AF0004ACDF814A0EC
:104E000033EA0A0300F0AA80DDE9042310461946BC
:104E100000220023CDE90A01FCF702F9074670B130
:104E2000249A01231360269B002B00F0E48269483A
:104E30001860431E0393039819B0BDE8F08F16ABBA
:104E4000019317AB00932046DDE90A2302F0A8FA8C
:104E50005FEA1A56054640F09780DDE916763E4433
:104E600006F23240202840F3B583C0F140000AFA30
:104E700000FA06F2124028FA00F04AEA0000FBF7B6
:104E800001FB0123013EA1F1F8710F93524B002267
:104E9000FBF7BAF948A3D3E90023FBF76DFB48A35E
:104EA000D3E90023FBF7B2F9804630468946FBF789
:104EB000F9FA45A3D3E90023FBF75EFB02460B4654
:104EC00040464946FBF7A2F980468946FCF7F0F8D0
:104ED00000228346002340464946FCF7ABF80028F1
:104EE00040F07C82BBF1160F00F26B823B4B03EB70
:104EF000CB03D3E90023DDE90A01FCF79BF8002886
:104F000072D00023BE1B0E93731E0BF1FF3B069362
:104F100000F15E8200230993BBF1000F6BDA099B5D
:104F2000CDF81CB0A3EB0B030993CBF100030D9359
:104F3000229B092B4FF0000B66D8052B40F34883CA
:104F4000043B22930026229B023B032B00F268863F
:104F5000DFE813F05C04590450043304249A42F24D
:104F60000F73CAF3130A13605AEA08031AD1269B77
:104F7000002B00F064861A4B03930833269A03989B
:104F8000136019B0BDE8F08FDDE90A12C2F3130314
:104F9000084643F07F510F97A6F2FF36169F41F463
:104FA000401173E7269B002B40F0EA830D4B0393DF
:104FB00041E700BFAFF3008061436F63A787D23F33
:104FC000B3C8608B288AC63FFB799F501344D33FF8
:104FD0000000F07F498F00080000F83FB8900008FB
:104FE000708F00086C8F0008BE1B731E069300F1C3
:104FF00085840E900990069B5B44CDE9063B002317
:105000000D93229B092B98D90023CDE92233012649
:105010004FF0FF330C960893089B129300216164B4
:10502000204601F075FE0390002800F00186039BE6
:105030002364089B0E2B00F21381002E00F01081D8
:105040000799002940F35C84AE4B01F00F0203EB9B
:10505000C2034FEA2118C905D3E9006740F114845F
:10506000A94BDDE90A01D3E90823FBF7AFFBCDE942
:10507000100108F00F084FF0030AB8F1000F13D029
:10508000DFF8849218F0010F09D030463946D9E98B
:105090000023FBF771FA0AF1010A06460F465FEAA0
:1050A000680809F10809EDD1DDE9100132463B46F7
:1050B000FBF78CFB804689460E9B43B1934B002245
:1050C00040464946FBF7B6FF002840F03085504681
:1050D000FBF7E8F942464B46FBF74EFA8C4B0022B1
:1050E000FBF794F8A1F15073CDE910011193089BDF
:1050F000002B00F09780079B1493089B13930C9B45
:10510000002B00F0A584139A7E4B8249039E03EB8B
:10511000C20353E902230020FBF758FBDDE910230B
:10512000FBF772F8CDE9100149464046FBF7C0FF96
:105130000746FBF7B7F902460B4640464946FBF7E0
:1051400063F83037DDE9102306F8017B8046894695
:10515000FBF770FF002840F02985CDF854B00027F8
:10516000DDE910AB1095139D13942AE00137AF428F
:1051700080F22C85684B504659460022FBF7FCF91B
:10518000654B002282468B4640464946FBF7F4F9C0
:1051900089468046FBF78CFF0446FBF783F90246FD
:1051A0000B4640464946FBF72FF8303406F8014BD2
:1051B00052465B4680468946FBF73CFF002840F09C
:1051C000F38442464B4651490020FBF71DF85246F6
:1051D0005B46FBF72FFF0028C8D0DDE91343109D85
:1051E000039A079302E0964200F0C884B24616F88C
:1051F000013D392BF7D00133DBB23370079B01330C
:105200000793C8E15046FBF74DF942464B46FBF782
:10521000B3F93F4B0022FAF7F9FFA1F15073CDE942
:10522000100111933D4B404649460022FAF7ECFF2E
:10523000DDE910894B46424606460F46FBF718FF4C
:105240008146002840F0AA84DDE91001024601F100
:10525000004330463946FBF7EDFE002840F0458319
:10526000179B002BC0F28C80079A0E2A00F38880CF
:10527000244B03EBC203D3E900AB239B002B1BDAC7
:10528000089B002B18DC40F02E83244B0022504654
:105290005946FBF771F902460B46DDE90A01FBF7B7
:1052A000D3FEDDF820904E46002800F0C782239BF5
:1052B000DDF80C80DF43C9E2DDE90A7852465B463F
:1052C00038464146FBF782FAFBF7F2FE8146099029
:1052D000FBF7E8F852465B46FBF74EF9039E0B4698
:1052E000024641463846FAF78FFF09F1300306F8C7
:1052F000013B089B012B00F05C8306940127049579
:105300001C462AE0B8900008909000080000F03F8A
:1053100000001C400000E03F00002440000014405A
:1053200052465B4640464946FBF750FAFBF7C0FE43
:105330000546FBF7B7F852465B46FBF71DF9013708
:105340000B46024649464046FAF75EFF05F1300338
:10535000A74206F8013B00F02983AC4B0022FBF783
:105360000BF90022002380468946FBF759FE0028EE
:10537000D6D0049D069C079B01330793B2460AE1F1
:105380000C9A002A3DD0229A012A40F39C82089B65
:1053900003F1FF380D9B4345C0F26D82A3EB080873
:1053A000089B002BC0F23C83069A1A440692099A85
:1053B00017461A4409920121204601F077FD06465E
:1053C00023E00123BE1B0E93731E06937FF5A2AD4F
:1053D000C6F101030993002306939DE55846FBF7A8
:1053E00061F842464B46FBF71BFE00287FF47AAD7E
:1053F0000BF1FF3B76E5864B0393039819B0BDE8AC
:10540000F08FDDF83480099F0C9E002F0CDD06998B
:1054100000290B4608DD099AB942A8BF3B46D21ABB
:10542000FF1ACB1A099206930D9BDBB10C9B002B44
:1054300000F05D82B8F1000F0FDD31464246204694
:1054400001F010FE2A4601460646204601F05CFDAA
:1054500029460546204601F081FC0D9BB3EB08026E
:1054600040F0D8820121204601F020FDBBF1000F61
:10547000814600F3B480229B012B40F386814FF0DC
:10548000000A0120BBF1000F40F0B580069A1044DD
:1054900010F01F0000F09380C0F12003042B40F3B4
:1054A000D283099BC0F11C000344024409930744C2
:1054B0000692099B002B05DD29461A46204601F07D
:1054C00031FE0546069B002B05DD49461A4620465F
:1054D00001F028FE81460E9B002B40F03681089B90
:1054E000002B40F31D810C9B002B40F0A080079BFC
:1054F00001330793DDF80C80DDF820A0012707E0D9
:10550000294600230A22204601F032FC01370546D5
:1055100049462846FFF7C0FB574500F1300308F81D
:10552000013BEDDB089A002AC8BF9346039AD8BF17
:105530004FF0010B93440027294601222046049393
:1055400001F0F0FD4946054601F064FE002840F3F5
:10555000A8811BF8013C039A0BF1FF3B04E05A457C
:1055600000F0AA811BF8013D392B0BF1010AF6D09E
:1055700001338BF800304946204601F0EFFB56B16D
:105580002FB1B74203D03946204601F0E7FB314640
:10559000204601F0E3FB2946204601F0DFFB002313
:1055A0008AF80030249B079A1A60269B002B3FF450
:1055B00042AC0398C3F800A019B0BDE8F08F1C20DE
:1055C000099B03440993069B03440744069370E731
:1055D0000126B8E4C0F1200008FA00F04FE40146CB
:1055E0005A46204601F03EFD229B012B814640F3A6
:1055F000B3814FF0000AD9F8103009EB8303186922
:1056000001F006FCC0F1200040E700BF000024408C
:10561000488F0008314600230A22204601F0A8FBEB
:10562000129B002B064640F3E782CDE90783002F4B
:1056300000F31A81BAF1000F40F0D581B046049B07
:10564000039F089903F001027B1E1944229B0C92D0
:10565000134309910A9349462846FFF71DFB31463B
:105660008346284601F0D6FD4246494682462046FA
:1056700001F0F0FDC26801460BF13003002A42D16F
:1056800006902846089301F0C5FD0699049020462F
:1056900001F064FB049A089B1AB90A99002900F0EA
:1056A0009B82BAF1000FC0F2638122994AEA010A93
:1056B0000C9951EA0A0100F05B81002A00F3B481E1
:1056C000099A3B7007F1010A9742D34600F0B28174
:1056D000294600230A22204601F04AFB464505469A
:1056E00031464FF000034FF00A02204612D001F07D
:1056F0003FFB4146064600230A22204601F038FBC4
:1057000057468046A7E72046049301F027FB049BF9
:105710000122C6E701F02CFB5746064680469AE771
:10572000229B022B79DC0C9B002B80D1079B4946E6
:10573000013328460793FFF7AFFADDF80CB000F10C
:1057400030030BF8013B0027F6E64946284601F0F6
:1057500061FD0028BFF6C3AE294600230A22204679
:1057600001F006FB079B03F1FF380C9B0546002B5D
:105770007FF450AF129B002B40F335820893B9E6BB
:10578000AF4B03930333FFF7F9BBDDE904120029A4
:105790007FF475AEC2F31303002B7FF470AEA94BF8
:1057A0001340002B00F0FE81099B01330993069BF7
:1057B000013306934FF0010A63E601230C93239B08
:1057C000079A134412930133012B1F460893B8BF65
:1057D00001270021172F61647FF722AC01220423E7
:1057E0005B0003F11400B842114602F10102F7D93F
:1057F000616415E401230C93239B002B4CDD129371
:1058000008931F46E5E700230C93D8E700230C9389
:10581000F2E7129BCDF81C800893089B002B7FF4C5
:1058200046AD49460522204601F0A2FA01468146CE
:10583000284601F0EFFC00287FF739AD0398079F59
:105840003123804600F8013B01370390494620464A
:1058500001F084FA7B1CDDF80CA00793CDF80C80D6
:10586000002E7FF494AE96E631463A46204601F08B
:1058700059FC0646DEE60D9BCDF83480A8EB030309
:105880009B444FF000088BE5DDE90A234FF0020A44
:10589000CDE91023FFF7F1BB012323930893FFF712
:1058A000BBBB03D1049BDB073FF553AEDA461BF8C5
:1058B000013D302BFAD05EE6079B039A0133079334
:1058C0003123137057E60F9A002A00F0268103F265
:1058D0003343069ADDF834801A440692099A174633
:1058E0001A44099267E54FF000094E46DFE4294665
:1058F0000D9A204601F0B6FB0546B3E50E9067E52C
:1059000000F00F81079A504B564206F00F0203EB4E
:10591000C203D3E90023DDE90A01FAF72DFE3611AF
:105920008046894600F07181484F00234FF0020AFB
:10593000F20706D5D7E90023FAF71EFE0AF1010A9D
:105940000123761007F10807F2D1002B3FF4B4AB26
:1059500080468946FFF7B0BB049B002B7FF449AE1D
:10596000DDE90412C2F31303002B3FF418AF40E645
:10597000002A12DD294601222046049301F0D2FBC1
:105980004946054601F046FC0028049B40F3188177
:10599000392B00F0F9800BF13103BA460AF8013BCC
:1059A000079B0133374607934646E4E50995069C75
:1059B000049D02460B46FAF729FC52465B46804698
:1059C0008946FBF755FB60B952465B46404649465F
:1059D000FBF726FB00283FF4CEAC099BD9077FF5E7
:1059E000CAAC039A02E47168204601F091F90746B7
:1059F000002800F00E81336902339A0006F10C0191
:105A00000C30FBF71DFA39460122204601F08AFBD3
:105A1000804614E62946204601F024FB054621E590
:105A2000DDE908239F1AC6E4392B00F0AD80BA46A1
:105A30000133B3E7079A01323746079246467BE5C2
:105A40006C8F00080000F07FB8900008909000086C
:105A5000DDF84CA0844901EBCA01DDE9102351E9CE
:105A60000201FAF789FDCDE9100149464046FBF7EE
:105A70001FFB0646FAF716FD0B460246494640460E
:105A8000FAF7C2FB039F53463036012B07F8016B30
:105A90008046894600F0AE80139E039B1E44734BE4
:105AA000002240464946FAF767FD89468046FBF7E3
:105AB000FFFA8246FAF7F6FC0AF1300A02460B4674
:105AC00040464946FAF7A0FB07F801ABB7428046CB
:105AD0008946E4D1664B0022DDE91001FAF796FB16
:105AE00042464B46FBF7A6FA002864D1DDE91023B5
:105AF0005F490020FAF788FB42464B46FBF7B8FAAD
:105B000000283FF4ADABB246013E1AF8013C302B01
